{
  "contractName": "CreateCertificate",
  "abi": [
    {
      "inputs": [
        {
          "internalType": "string",
          "name": "eventName",
          "type": "string"
        },
        {
          "internalType": "string",
          "name": "date",
          "type": "string"
        }
      ],
      "name": "registerEvent",
      "outputs": [],
      "stateMutability": "nonpayable",
      "type": "function"
    },
    {
      "inputs": [],
      "name": "getAllEvents",
      "outputs": [
        {
          "internalType": "string",
          "name": "eventName",
          "type": "string"
        },
        {
          "internalType": "address",
          "name": "eventOwner",
          "type": "address"
        },
        {
          "internalType": "string",
          "name": "date",
          "type": "string"
        },
        {
          "components": [
            {
              "internalType": "string",
              "name": "participentName",
              "type": "string"
            },
            {
              "internalType": "string",
              "name": "cid",
              "type": "string"
            },
            {
              "internalType": "string",
              "name": "wonPriceFor",
              "type": "string"
            },
            {
              "internalType": "string",
              "name": "eventName",
              "type": "string"
            },
            {
              "internalType": "string",
              "name": "eventDate",
              "type": "string"
            }
          ],
          "internalType": "struct CreateCertificate.Certificate[]",
          "name": "certificates",
          "type": "tuple[]"
        }
      ],
      "stateMutability": "view",
      "type": "function",
      "constant": true
    },
    {
      "inputs": [
        {
          "internalType": "address",
          "name": "eventAddress",
          "type": "address"
        }
      ],
      "name": "getEvent",
      "outputs": [
        {
          "internalType": "string",
          "name": "eventName",
          "type": "string"
        },
        {
          "internalType": "string",
          "name": "eventDate",
          "type": "string"
        }
      ],
      "stateMutability": "view",
      "type": "function",
      "constant": true
    },
    {
      "inputs": [
        {
          "internalType": "string",
          "name": "participentName",
          "type": "string"
        },
        {
          "internalType": "string",
          "name": "cid",
          "type": "string"
        },
        {
          "internalType": "string",
          "name": "wonPriceFor",
          "type": "string"
        },
        {
          "internalType": "string",
          "name": "eventName",
          "type": "string"
        },
        {
          "internalType": "string",
          "name": "eventDate",
          "type": "string"
        }
      ],
      "name": "generateCertificate",
      "outputs": [
        {
          "internalType": "bool",
          "name": "",
          "type": "bool"
        }
      ],
      "stateMutability": "nonpayable",
      "type": "function"
    },
    {
      "inputs": [
        {
          "internalType": "address",
          "name": "eventAddress",
          "type": "address"
        },
        {
          "internalType": "string",
          "name": "cid",
          "type": "string"
        }
      ],
      "name": "verifyCertificate",
      "outputs": [
        {
          "internalType": "string",
          "name": "participentName",
          "type": "string"
        },
        {
          "internalType": "string",
          "name": "cid_",
          "type": "string"
        },
        {
          "internalType": "string",
          "name": "wonPriceFor",
          "type": "string"
        },
        {
          "internalType": "string",
          "name": "eventName",
          "type": "string"
        },
        {
          "internalType": "string",
          "name": "eventDate",
          "type": "string"
        }
      ],
      "stateMutability": "view",
      "type": "function",
      "constant": true
    }
  ],
  "bytecode": "0x608060405234801561001057600080fd5b5061193f806100206000396000f3fe608060405234801561001057600080fd5b50600436106100575760003560e01c806309e7b9731461005c57806332cc82b31461008c578063b8989aa1146100c0578063c27a500d146100dc578063f10b97b6146100fd575b600080fd5b61007660048036038101906100719190610ef2565b61012e565b6040516100839190611014565b60405180910390f35b6100a660048036038101906100a1919061108d565b610243565b6040516100b7959493929190611168565b60405180910390f35b6100da60048036038101906100d591906111de565b6106a7565b005b6100e4610755565b6040516100f49493929190611403565b60405180910390f35b6101176004803603810190610112919061145d565b610c29565b60405161012592919061148a565b60405180910390f35b6000806000803373ffffffffffffffffffffffffffffffffffffffff1673ffffffffffffffffffffffffffffffffffffffff1681526020019081526020016000209050806003016040518060a0016040528089815260200188815260200187815260200186815260200185815250908060018154018082558091505060019003906000526020600020906005020160009091909190915060008201518160000190816101da91906116d7565b5060208201518160010190816101f091906116d7565b50604082015181600201908161020691906116d7565b50606082015181600301908161021c91906116d7565b50608082015181600401908161023291906116d7565b505050600191505095945050505050565b606080606080606060008060008973ffffffffffffffffffffffffffffffffffffffff1673ffffffffffffffffffffffffffffffffffffffff1681526020019081526020016000209050600081600301905060005b818054905081101561063f5788805190602001208282815481106102bf576102be6117a9565b5b90600052602060002090600502016001016040516102dd919061187b565b60405180910390200361062c578181815481106102fd576102fc6117a9565b5b9060005260206000209060050201600001828281548110610321576103206117a9565b5b9060005260206000209060050201600101838381548110610345576103446117a9565b5b9060005260206000209060050201600201856000018660020184805461036a906114f0565b80601f0160208091040260200160405190810160405280929190818152602001828054610396906114f0565b80156103e35780601f106103b8576101008083540402835291602001916103e3565b820191906000526020600020905b8154815290600101906020018083116103c657829003601f168201915b505050505094508380546103f6906114f0565b80601f0160208091040260200160405190810160405280929190818152602001828054610422906114f0565b801561046f5780601f106104445761010080835404028352916020019161046f565b820191906000526020600020905b81548152906001019060200180831161045257829003601f168201915b50505050509350828054610482906114f0565b80601f01602080910402602001604051908101604052809291908181526020018280546104ae906114f0565b80156104fb5780601f106104d0576101008083540402835291602001916104fb565b820191906000526020600020905b8154815290600101906020018083116104de57829003601f168201915b5050505050925081805461050e906114f0565b80601f016020809104026020016040519081016040528092919081815260200182805461053a906114f0565b80156105875780601f1061055c57610100808354040283529160200191610587565b820191906000526020600020905b81548152906001019060200180831161056a57829003601f168201915b5050505050915080805461059a906114f0565b80601f01602080910402602001604051908101604052809291908181526020018280546105c6906114f0565b80156106135780601f106105e857610100808354040283529160200191610613565b820191906000526020600020905b8154815290600101906020018083116105f657829003601f168201915b505050505090509750975097509750975050505061069d565b8080610637906118c1565b915050610298565b5060405180602001604052806000815250604051806020016040528060008152506040518060200160405280600081525060405180602001604052806000815250604051806020016040528060008152509650965096509650965050505b9295509295909350565b60008060003373ffffffffffffffffffffffffffffffffffffffff1673ffffffffffffffffffffffffffffffffffffffff1681526020019081526020016000209050818160020190816106fa91906116d7565b508281600001908161070c91906116d7565b50338160010160006101000a81548173ffffffffffffffffffffffffffffffffffffffff021916908373ffffffffffffffffffffffffffffffffffffffff160217905550505050565b6060600060608060008060003373ffffffffffffffffffffffffffffffffffffffff1673ffffffffffffffffffffffffffffffffffffffff1681526020019081526020016000209050806000018160010160009054906101000a900473ffffffffffffffffffffffffffffffffffffffff1682600201836003018380546107db906114f0565b80601f0160208091040260200160405190810160405280929190818152602001828054610807906114f0565b80156108545780601f1061082957610100808354040283529160200191610854565b820191906000526020600020905b81548152906001019060200180831161083757829003601f168201915b50505050509350818054610867906114f0565b80601f0160208091040260200160405190810160405280929190818152602001828054610893906114f0565b80156108e05780601f106108b5576101008083540402835291602001916108e0565b820191906000526020600020905b8154815290600101906020018083116108c357829003601f168201915b5050505050915080805480602002602001604051908101604052809291908181526020016000905b82821015610c1457838290600052602060002090600502016040518060a001604052908160008201805461093b906114f0565b80601f0160208091040260200160405190810160405280929190818152602001828054610967906114f0565b80156109b45780601f10610989576101008083540402835291602001916109b4565b820191906000526020600020905b81548152906001019060200180831161099757829003601f168201915b505050505081526020016001820180546109cd906114f0565b80601f01602080910402602001604051908101604052809291908181526020018280546109f9906114f0565b8015610a465780601f10610a1b57610100808354040283529160200191610a46565b820191906000526020600020905b815481529060010190602001808311610a2957829003601f168201915b50505050508152602001600282018054610a5f906114f0565b80601f0160208091040260200160405190810160405280929190818152602001828054610a8b906114f0565b8015610ad85780601f10610aad57610100808354040283529160200191610ad8565b820191906000526020600020905b815481529060010190602001808311610abb57829003601f168201915b50505050508152602001600382018054610af1906114f0565b80601f0160208091040260200160405190810160405280929190818152602001828054610b1d906114f0565b8015610b6a5780601f10610b3f57610100808354040283529160200191610b6a565b820191906000526020600020905b815481529060010190602001808311610b4d57829003601f168201915b50505050508152602001600482018054610b83906114f0565b80601f0160208091040260200160405190810160405280929190818152602001828054610baf906114f0565b8015610bfc5780601f10610bd157610100808354040283529160200191610bfc565b820191906000526020600020905b815481529060010190602001808311610bdf57829003601f168201915b50505050508152505081526020019060010190610908565b50505050905094509450945094505090919293565b60608060008060008573ffffffffffffffffffffffffffffffffffffffff1673ffffffffffffffffffffffffffffffffffffffff16815260200190815260200160002090508060000181600201818054610c82906114f0565b80601f0160208091040260200160405190810160405280929190818152602001828054610cae906114f0565b8015610cfb5780601f10610cd057610100808354040283529160200191610cfb565b820191906000526020600020905b815481529060010190602001808311610cde57829003601f168201915b50505050509150808054610d0e906114f0565b80601f0160208091040260200160405190810160405280929190818152602001828054610d3a906114f0565b8015610d875780601f10610d5c57610100808354040283529160200191610d87565b820191906000526020600020905b815481529060010190602001808311610d6a57829003601f168201915b505050505090509250925050915091565b6000604051905090565b600080fd5b600080fd5b600080fd5b600080fd5b6000601f19601f8301169050919050565b7f4e487b7100000000000000000000000000000000000000000000000000000000600052604160045260246000fd5b610dff82610db6565b810181811067ffffffffffffffff82111715610e1e57610e1d610dc7565b5b80604052505050565b6000610e31610d98565b9050610e3d8282610df6565b919050565b600067ffffffffffffffff821115610e5d57610e5c610dc7565b5b610e6682610db6565b9050602081019050919050565b82818337600083830152505050565b6000610e95610e9084610e42565b610e27565b905082815260208101848484011115610eb157610eb0610db1565b5b610ebc848285610e73565b509392505050565b600082601f830112610ed957610ed8610dac565b5b8135610ee9848260208601610e82565b91505092915050565b600080600080600060a08688031215610f0e57610f0d610da2565b5b600086013567ffffffffffffffff811115610f2c57610f2b610da7565b5b610f3888828901610ec4565b955050602086013567ffffffffffffffff811115610f5957610f58610da7565b5b610f6588828901610ec4565b945050604086013567ffffffffffffffff811115610f8657610f85610da7565b5b610f9288828901610ec4565b935050606086013567ffffffffffffffff811115610fb357610fb2610da7565b5b610fbf88828901610ec4565b925050608086013567ffffffffffffffff811115610fe057610fdf610da7565b5b610fec88828901610ec4565b9150509295509295909350565b60008115159050919050565b61100e81610ff9565b82525050565b60006020820190506110296000830184611005565b92915050565b600073ffffffffffffffffffffffffffffffffffffffff82169050919050565b600061105a8261102f565b9050919050565b61106a8161104f565b811461107557600080fd5b50565b60008135905061108781611061565b92915050565b600080604083850312156110a4576110a3610da2565b5b60006110b285828601611078565b925050602083013567ffffffffffffffff8111156110d3576110d2610da7565b5b6110df85828601610ec4565b9150509250929050565b600081519050919050565b600082825260208201905092915050565b60005b83811015611123578082015181840152602081019050611108565b60008484015250505050565b600061113a826110e9565b61114481856110f4565b9350611154818560208601611105565b61115d81610db6565b840191505092915050565b600060a0820190508181036000830152611182818861112f565b90508181036020830152611196818761112f565b905081810360408301526111aa818661112f565b905081810360608301526111be818561112f565b905081810360808301526111d2818461112f565b90509695505050505050565b600080604083850312156111f5576111f4610da2565b5b600083013567ffffffffffffffff81111561121357611212610da7565b5b61121f85828601610ec4565b925050602083013567ffffffffffffffff8111156112405761123f610da7565b5b61124c85828601610ec4565b9150509250929050565b61125f8161104f565b82525050565b600081519050919050565b600082825260208201905092915050565b6000819050602082019050919050565b600082825260208201905092915050565b60006112ad826110e9565b6112b78185611291565b93506112c7818560208601611105565b6112d081610db6565b840191505092915050565b600060a08301600083015184820360008601526112f882826112a2565b9150506020830151848203602086015261131282826112a2565b9150506040830151848203604086015261132c82826112a2565b9150506060830151848203606086015261134682826112a2565b9150506080830151848203608086015261136082826112a2565b9150508091505092915050565b600061137983836112db565b905092915050565b6000602082019050919050565b600061139982611265565b6113a38185611270565b9350836020820285016113b585611281565b8060005b858110156113f157848403895281516113d2858261136d565b94506113dd83611381565b925060208a019950506001810190506113b9565b50829750879550505050505092915050565b6000608082019050818103600083015261141d818761112f565b905061142c6020830186611256565b818103604083015261143e818561112f565b90508181036060830152611452818461138e565b905095945050505050565b60006020828403121561147357611472610da2565b5b600061148184828501611078565b91505092915050565b600060408201905081810360008301526114a4818561112f565b905081810360208301526114b8818461112f565b90509392505050565b7f4e487b7100000000000000000000000000000000000000000000000000000000600052602260045260246000fd5b6000600282049050600182168061150857607f821691505b60208210810361151b5761151a6114c1565b5b50919050565b60008190508160005260206000209050919050565b60006020601f8301049050919050565b600082821b905092915050565b6000600883026115837fffffffffffffffffffffffffffffffffffffffffffffffffffffffffffffffff82611546565b61158d8683611546565b95508019841693508086168417925050509392505050565b6000819050919050565b6000819050919050565b60006115d46115cf6115ca846115a5565b6115af565b6115a5565b9050919050565b6000819050919050565b6115ee836115b9565b6116026115fa826115db565b848454611553565b825550505050565b600090565b61161761160a565b6116228184846115e5565b505050565b5b818110156116465761163b60008261160f565b600181019050611628565b5050565b601f82111561168b5761165c81611521565b61166584611536565b81016020851015611674578190505b61168861168085611536565b830182611627565b50505b505050565b600082821c905092915050565b60006116ae60001984600802611690565b1980831691505092915050565b60006116c7838361169d565b9150826002028217905092915050565b6116e0826110e9565b67ffffffffffffffff8111156116f9576116f8610dc7565b5b61170382546114f0565b61170e82828561164a565b600060209050601f831160018114611741576000841561172f578287015190505b61173985826116bb565b8655506117a1565b601f19841661174f86611521565b60005b8281101561177757848901518255600182019150602085019450602081019050611752565b868310156117945784890151611790601f89168261169d565b8355505b6001600288020188555050505b505050505050565b7f4e487b7100000000000000000000000000000000000000000000000000000000600052603260045260246000fd5b600081905092915050565b60008190508160005260206000209050919050565b60008154611805816114f0565b61180f81866117d8565b9450600182166000811461182a576001811461183f57611872565b60ff1983168652811515820286019350611872565b611848856117e3565b60005b8381101561186a5781548189015260018201915060208101905061184b565b838801955050505b50505092915050565b600061188782846117f8565b915081905092915050565b7f4e487b7100000000000000000000000000000000000000000000000000000000600052601160045260246000fd5b60006118cc826115a5565b91507fffffffffffffffffffffffffffffffffffffffffffffffffffffffffffffffff82036118fe576118fd611892565b5b60018201905091905056fea2646970667358221220f0aa7c8b2d911366c2d7d05e49f4c25f349f1f78bea7d9cf0c8880b1065f6c5164736f6c63430008130033",
  "immutableReferences": {},
  "source": "// SPDX-License-Identifier: MIT\npragma solidity 0.8.19;\n\ncontract CreateCertificate {\n    struct Certificate {\n        string participentName;\n        string cid;\n        string wonPriceFor;\n        string eventName;\n        string eventDate;\n    }\n    struct Event {\n        string eventName;\n        address eventOwner;\n        string date;\n        Certificate[] certificates;\n    }\n\n    mapping(address => Event) events;\n\n    function registerEvent(string memory eventName, string memory date) public {\n        Event storage event_ = events[msg.sender];\n        event_.date = date;\n        event_.eventName = eventName;\n        event_.eventOwner = msg.sender;\n    }\n\n    function getAllEvents()\n        public\n        view\n        returns (\n            string memory eventName,\n            address eventOwner,\n            string memory date,\n            Certificate[] memory certificates\n        )\n    {\n        Event storage event_ = events[msg.sender];\n        return (\n            event_.eventName,\n            event_.eventOwner,\n            event_.date,\n            event_.certificates\n        );\n    }\n\n    function getEvent(\n        address eventAddress\n    ) public view returns (string memory eventName, string memory eventDate) {\n        Event storage event_ = events[eventAddress];\n        return (event_.eventName, event_.date);\n    }\n\n    function generateCertificate(\n        string memory participentName,\n        string memory cid,\n        string memory wonPriceFor,\n        string memory eventName,\n        string memory eventDate\n    ) public returns (bool) {\n        Event storage event_ = events[msg.sender];\n        event_.certificates.push(\n            Certificate(participentName, cid, wonPriceFor, eventName, eventDate)\n        );\n        return true;\n    }\n\n    function verifyCertificate(\n        address eventAddress,\n        string memory cid\n    )\n        public\n        view\n        returns (\n            string memory participentName,\n            string memory cid_,\n            string memory wonPriceFor,\n            string memory eventName,\n            string memory eventDate\n        )\n    {\n        Event storage event_ = events[eventAddress];\n        Certificate[] storage certificates = event_.certificates;\n\n        for (uint i = 0; i < certificates.length; i++) {\n            if (\n                keccak256(bytes(certificates[i].cid)) == keccak256(bytes(cid))\n            ) {\n                return (\n                    certificates[i].participentName,\n                    certificates[i].cid,\n                    certificates[i].wonPriceFor,\n                    event_.eventName,\n                    event_.date\n                );\n            }\n        }\n\n        return (\"\", \"\", \"\", \"\", \"\");\n    }\n}\n",
  "sourcePath": "/Users/mohitgajjar501/Developer/EventLedger/contracts/CreateCertificate.sol",
  "compiler": {
    "name": "solc",
    "version": "0.8.19+commit.7dd6d404.Emscripten.clang"
  },
  "schemaVersion": "3.4.14",
  "updatedAt": "2023-08-31T05:25:01.775Z",
  "networkType": "ethereum",
  "devdoc": {
    "kind": "dev",
    "methods": {},
    "version": 1
  },
  "userdoc": {
    "kind": "user",
    "methods": {},
    "version": 1
  }
}