{
  "contractName": "CreateCertificate",
  "abi": [
    {
      "inputs": [
        {
          "internalType": "string",
          "name": "eventName",
          "type": "string"
        },
        {
          "internalType": "string",
          "name": "date",
          "type": "string"
        },
        {
          "internalType": "address",
          "name": "eventAdd",
          "type": "address"
        }
      ],
      "name": "registerEvent",
      "outputs": [],
      "stateMutability": "nonpayable",
      "type": "function"
    },
    {
      "inputs": [],
      "name": "getAllEvents",
      "outputs": [
        {
          "internalType": "string",
          "name": "eventName",
          "type": "string"
        },
        {
          "internalType": "address",
          "name": "eventOwner",
          "type": "address"
        },
        {
          "internalType": "string",
          "name": "date",
          "type": "string"
        },
        {
          "internalType": "string[]",
          "name": "certificates",
          "type": "string[]"
        }
      ],
      "stateMutability": "view",
      "type": "function",
      "constant": true
    },
    {
      "inputs": [
        {
          "internalType": "address",
          "name": "eventAddress",
          "type": "address"
        }
      ],
      "name": "getEvent",
      "outputs": [
        {
          "internalType": "string",
          "name": "eventName",
          "type": "string"
        },
        {
          "internalType": "string",
          "name": "eventDate",
          "type": "string"
        }
      ],
      "stateMutability": "view",
      "type": "function",
      "constant": true
    },
    {
      "inputs": [
        {
          "internalType": "string",
          "name": "cid",
          "type": "string"
        }
      ],
      "name": "generateCertificate",
      "outputs": [
        {
          "internalType": "bool",
          "name": "",
          "type": "bool"
        }
      ],
      "stateMutability": "nonpayable",
      "type": "function"
    },
    {
      "inputs": [
        {
          "internalType": "address",
          "name": "eventAddress",
          "type": "address"
        },
        {
          "internalType": "string",
          "name": "cid",
          "type": "string"
        }
      ],
      "name": "verifyCertificate",
      "outputs": [
        {
          "internalType": "string",
          "name": "cid_",
          "type": "string"
        }
      ],
      "stateMutability": "view",
      "type": "function",
      "constant": true
    }
  ],
  "bytecode": "0x608060405234801561001057600080fd5b50611243806100206000396000f3fe608060405234801561001057600080fd5b50600436106100575760003560e01c806332cc82b31461005c578063698ad1611461008c578063c27a500d146100bc578063f10b97b6146100dd578063f74a054b1461010e575b600080fd5b610076600480360381019061007191906109e5565b61012a565b6040516100839190610ac0565b60405180910390f35b6100a660048036038101906100a19190610ae2565b6102a3565b6040516100b39190610b46565b60405180910390f35b6100c4610327565b6040516100d49493929190610c7c565b60405180910390f35b6100f760048036038101906100f29190610cd6565b61059b565b604051610105929190610d03565b60405180910390f35b61012860048036038101906101239190610d3a565b61070a565b005b606060008060008573ffffffffffffffffffffffffffffffffffffffff1673ffffffffffffffffffffffffffffffffffffffff1681526020019081526020016000209050600081600301905060005b81805490508110156102875784805190602001208282815481106101a05761019f610dc5565b5b906000526020600020016040516101b79190610ef7565b604051809103902003610274578181815481106101d7576101d6610dc5565b5b9060005260206000200180546101ec90610e23565b80601f016020809104026020016040519081016040528092919081815260200182805461021890610e23565b80156102655780601f1061023a57610100808354040283529160200191610265565b820191906000526020600020905b81548152906001019060200180831161024857829003601f168201915b5050505050935050505061029d565b808061027f90610f47565b915050610179565b5060405180602001604052806000815250925050505b92915050565b6000806000803373ffffffffffffffffffffffffffffffffffffffff1673ffffffffffffffffffffffffffffffffffffffff1681526020019081526020016000209050806003018390806001815401808255809150506001900390600052602060002001600090919091909150908161031c919061113b565b506001915050919050565b6060600060608060008060003373ffffffffffffffffffffffffffffffffffffffff1673ffffffffffffffffffffffffffffffffffffffff1681526020019081526020016000209050806000018160010160009054906101000a900473ffffffffffffffffffffffffffffffffffffffff1682600201836003018380546103ad90610e23565b80601f01602080910402602001604051908101604052809291908181526020018280546103d990610e23565b80156104265780601f106103fb57610100808354040283529160200191610426565b820191906000526020600020905b81548152906001019060200180831161040957829003601f168201915b5050505050935081805461043990610e23565b80601f016020809104026020016040519081016040528092919081815260200182805461046590610e23565b80156104b25780601f10610487576101008083540402835291602001916104b2565b820191906000526020600020905b81548152906001019060200180831161049557829003601f168201915b5050505050915080805480602002602001604051908101604052809291908181526020016000905b828210156105865783829060005260206000200180546104f990610e23565b80601f016020809104026020016040519081016040528092919081815260200182805461052590610e23565b80156105725780601f1061054757610100808354040283529160200191610572565b820191906000526020600020905b81548152906001019060200180831161055557829003601f168201915b5050505050815260200190600101906104da565b50505050905094509450945094505090919293565b60608060008060008573ffffffffffffffffffffffffffffffffffffffff1673ffffffffffffffffffffffffffffffffffffffff168152602001908152602001600020905080600001816002018180546105f490610e23565b80601f016020809104026020016040519081016040528092919081815260200182805461062090610e23565b801561066d5780601f106106425761010080835404028352916020019161066d565b820191906000526020600020905b81548152906001019060200180831161065057829003601f168201915b5050505050915080805461068090610e23565b80601f01602080910402602001604051908101604052809291908181526020018280546106ac90610e23565b80156106f95780601f106106ce576101008083540402835291602001916106f9565b820191906000526020600020905b8154815290600101906020018083116106dc57829003601f168201915b505050505090509250925050915091565b826000808373ffffffffffffffffffffffffffffffffffffffff1673ffffffffffffffffffffffffffffffffffffffff1681526020019081526020016000206000019081610758919061113b565b50816000808373ffffffffffffffffffffffffffffffffffffffff1673ffffffffffffffffffffffffffffffffffffffff16815260200190815260200160002060020190816107a7919061113b565b50806000808373ffffffffffffffffffffffffffffffffffffffff1673ffffffffffffffffffffffffffffffffffffffff16815260200190815260200160002060010160006101000a81548173ffffffffffffffffffffffffffffffffffffffff021916908373ffffffffffffffffffffffffffffffffffffffff160217905550505050565b6000604051905090565b600080fd5b600080fd5b600073ffffffffffffffffffffffffffffffffffffffff82169050919050565b600061086c82610841565b9050919050565b61087c81610861565b811461088757600080fd5b50565b60008135905061089981610873565b92915050565b600080fd5b600080fd5b6000601f19601f8301169050919050565b7f4e487b7100000000000000000000000000000000000000000000000000000000600052604160045260246000fd5b6108f2826108a9565b810181811067ffffffffffffffff82111715610911576109106108ba565b5b80604052505050565b600061092461082d565b905061093082826108e9565b919050565b600067ffffffffffffffff8211156109505761094f6108ba565b5b610959826108a9565b9050602081019050919050565b82818337600083830152505050565b600061098861098384610935565b61091a565b9050828152602081018484840111156109a4576109a36108a4565b5b6109af848285610966565b509392505050565b600082601f8301126109cc576109cb61089f565b5b81356109dc848260208601610975565b91505092915050565b600080604083850312156109fc576109fb610837565b5b6000610a0a8582860161088a565b925050602083013567ffffffffffffffff811115610a2b57610a2a61083c565b5b610a37858286016109b7565b9150509250929050565b600081519050919050565b600082825260208201905092915050565b60005b83811015610a7b578082015181840152602081019050610a60565b60008484015250505050565b6000610a9282610a41565b610a9c8185610a4c565b9350610aac818560208601610a5d565b610ab5816108a9565b840191505092915050565b60006020820190508181036000830152610ada8184610a87565b905092915050565b600060208284031215610af857610af7610837565b5b600082013567ffffffffffffffff811115610b1657610b1561083c565b5b610b22848285016109b7565b91505092915050565b60008115159050919050565b610b4081610b2b565b82525050565b6000602082019050610b5b6000830184610b37565b92915050565b610b6a81610861565b82525050565b600081519050919050565b600082825260208201905092915050565b6000819050602082019050919050565b600082825260208201905092915050565b6000610bb882610a41565b610bc28185610b9c565b9350610bd2818560208601610a5d565b610bdb816108a9565b840191505092915050565b6000610bf28383610bad565b905092915050565b6000602082019050919050565b6000610c1282610b70565b610c1c8185610b7b565b935083602082028501610c2e85610b8c565b8060005b85811015610c6a5784840389528151610c4b8582610be6565b9450610c5683610bfa565b925060208a01995050600181019050610c32565b50829750879550505050505092915050565b60006080820190508181036000830152610c968187610a87565b9050610ca56020830186610b61565b8181036040830152610cb78185610a87565b90508181036060830152610ccb8184610c07565b905095945050505050565b600060208284031215610cec57610ceb610837565b5b6000610cfa8482850161088a565b91505092915050565b60006040820190508181036000830152610d1d8185610a87565b90508181036020830152610d318184610a87565b90509392505050565b600080600060608486031215610d5357610d52610837565b5b600084013567ffffffffffffffff811115610d7157610d7061083c565b5b610d7d868287016109b7565b935050602084013567ffffffffffffffff811115610d9e57610d9d61083c565b5b610daa868287016109b7565b9250506040610dbb8682870161088a565b9150509250925092565b7f4e487b7100000000000000000000000000000000000000000000000000000000600052603260045260246000fd5b7f4e487b7100000000000000000000000000000000000000000000000000000000600052602260045260246000fd5b60006002820490506001821680610e3b57607f821691505b602082108103610e4e57610e4d610df4565b5b50919050565b600081905092915050565b60008190508160005260206000209050919050565b60008154610e8181610e23565b610e8b8186610e54565b94506001821660008114610ea65760018114610ebb57610eee565b60ff1983168652811515820286019350610eee565b610ec485610e5f565b60005b83811015610ee657815481890152600182019150602081019050610ec7565b838801955050505b50505092915050565b6000610f038284610e74565b915081905092915050565b7f4e487b7100000000000000000000000000000000000000000000000000000000600052601160045260246000fd5b6000819050919050565b6000610f5282610f3d565b91507fffffffffffffffffffffffffffffffffffffffffffffffffffffffffffffffff8203610f8457610f83610f0e565b5b600182019050919050565b60008190508160005260206000209050919050565b60006020601f8301049050919050565b600082821b905092915050565b600060088302610ff17fffffffffffffffffffffffffffffffffffffffffffffffffffffffffffffffff82610fb4565b610ffb8683610fb4565b95508019841693508086168417925050509392505050565b6000819050919050565b600061103861103361102e84610f3d565b611013565b610f3d565b9050919050565b6000819050919050565b6110528361101d565b61106661105e8261103f565b848454610fc1565b825550505050565b600090565b61107b61106e565b611086818484611049565b505050565b5b818110156110aa5761109f600082611073565b60018101905061108c565b5050565b601f8211156110ef576110c081610f8f565b6110c984610fa4565b810160208510156110d8578190505b6110ec6110e485610fa4565b83018261108b565b50505b505050565b600082821c905092915050565b6000611112600019846008026110f4565b1980831691505092915050565b600061112b8383611101565b9150826002028217905092915050565b61114482610a41565b67ffffffffffffffff81111561115d5761115c6108ba565b5b6111678254610e23565b6111728282856110ae565b600060209050601f8311600181146111a55760008415611193578287015190505b61119d858261111f565b865550611205565b601f1984166111b386610f8f565b60005b828110156111db578489015182556001820191506020850194506020810190506111b6565b868310156111f857848901516111f4601f891682611101565b8355505b6001600288020188555050505b50505050505056fea2646970667358221220d84776ce2cfcbf344e0cfc31c2bf475065a8577fa2f463548768df64a3a55e4a64736f6c63430008130033",
  "immutableReferences": {},
  "source": "// SPDX-License-Identifier: MIT\npragma solidity 0.8.19;\n\ncontract CreateCertificate {\n    struct Certificate {\n        string participentName;\n        string cid;\n        string wonPriceFor;\n        string eventName;\n        string eventDate;\n    }\n    struct Event {\n        string eventName;\n        address eventOwner;\n        string date;\n        string[] certificates;\n    }\n\n    mapping(address => Event) events;\n\n    function registerEvent(\n        string memory eventName,\n        string memory date,\n        address eventAdd\n    ) public {\n        events[eventAdd].eventName = eventName;\n        events[eventAdd].date = date;\n        events[eventAdd].eventOwner = eventAdd;\n    }\n\n    function getAllEvents()\n        public\n        view\n        returns (\n            string memory eventName,\n            address eventOwner,\n            string memory date,\n            string[] memory certificates\n        )\n    {\n        Event storage event_ = events[msg.sender];\n        return (\n            event_.eventName,\n            event_.eventOwner,\n            event_.date,\n            event_.certificates\n        );\n    }\n\n    function getEvent(\n        address eventAddress\n    ) public view returns (string memory eventName, string memory eventDate) {\n        Event storage event_ = events[eventAddress];\n        return (event_.eventName, event_.date);\n    }\n\n    function generateCertificate(string memory cid) public returns (bool) {\n        Event storage event_ = events[msg.sender];\n        event_.certificates.push(cid);\n        return true;\n    }\n\n    function verifyCertificate(\n        address eventAddress,\n        string memory cid\n    ) public view returns (string memory cid_) {\n        Event storage event_ = events[eventAddress];\n\n        string[] storage cids = event_.certificates;\n\n        for (uint i = 0; i < cids.length; i++) {\n            if (keccak256(bytes(cids[i])) == keccak256(bytes(cid))) {\n                return (cids[i]);\n            }\n        }\n\n        return (\"\");\n    }\n}\n",
  "sourcePath": "/Users/mohitgajjar501/Developer/EventLedger/contracts/CreateCertificate.sol",
  "compiler": {
    "name": "solc",
    "version": "0.8.19+commit.7dd6d404.Emscripten.clang"
  },
  "schemaVersion": "3.4.14",
  "updatedAt": "2023-10-02T04:32:04.072Z",
  "networkType": "ethereum",
  "devdoc": {
    "kind": "dev",
    "methods": {},
    "version": 1
  },
  "userdoc": {
    "kind": "user",
    "methods": {},
    "version": 1
  }
}