{
  "contractName": "CreateCertificate",
  "abi": [
    {
      "inputs": [
        {
          "internalType": "string",
          "name": "eventName",
          "type": "string"
        },
        {
          "internalType": "string",
          "name": "date",
          "type": "string"
        }
      ],
      "name": "registerEvent",
      "outputs": [],
      "stateMutability": "nonpayable",
      "type": "function"
    },
    {
      "inputs": [],
      "name": "getAllEvents",
      "outputs": [
        {
          "internalType": "string",
          "name": "eventName",
          "type": "string"
        },
        {
          "internalType": "address",
          "name": "eventOwner",
          "type": "address"
        },
        {
          "internalType": "string",
          "name": "date",
          "type": "string"
        },
        {
          "components": [
            {
              "internalType": "string",
              "name": "participentName",
              "type": "string"
            },
            {
              "internalType": "string",
              "name": "cid",
              "type": "string"
            },
            {
              "internalType": "string",
              "name": "wonPriceFor",
              "type": "string"
            }
          ],
          "internalType": "struct CreateCertificate.Certificate[]",
          "name": "certificates",
          "type": "tuple[]"
        }
      ],
      "stateMutability": "view",
      "type": "function",
      "constant": true
    },
    {
      "inputs": [
        {
          "internalType": "string",
          "name": "participentName",
          "type": "string"
        },
        {
          "internalType": "string",
          "name": "cid",
          "type": "string"
        },
        {
          "internalType": "string",
          "name": "wonPriceFor",
          "type": "string"
        }
      ],
      "name": "generateCertificate",
      "outputs": [
        {
          "internalType": "bool",
          "name": "",
          "type": "bool"
        }
      ],
      "stateMutability": "nonpayable",
      "type": "function"
    },
    {
      "inputs": [
        {
          "internalType": "address",
          "name": "eventAddress",
          "type": "address"
        },
        {
          "internalType": "string",
          "name": "cid",
          "type": "string"
        }
      ],
      "name": "verifyCertificate",
      "outputs": [
        {
          "internalType": "string",
          "name": "participentName",
          "type": "string"
        },
        {
          "internalType": "string",
          "name": "cid_",
          "type": "string"
        },
        {
          "internalType": "string",
          "name": "wonPriceFor",
          "type": "string"
        },
        {
          "internalType": "string",
          "name": "eventName",
          "type": "string"
        },
        {
          "internalType": "string",
          "name": "eventDate",
          "type": "string"
        }
      ],
      "stateMutability": "view",
      "type": "function",
      "constant": true
    }
  ],
  "bytecode": "0x608060405234801561001057600080fd5b5061153e806100206000396000f3fe608060405234801561001057600080fd5b506004361061004c5760003560e01c806332cc82b31461005157806374866d5314610085578063b8989aa1146100b5578063c27a500d146100d1575b600080fd5b61006b60048036038101906100669190610c47565b6100f2565b60405161007c959493929190610d22565b60405180910390f35b61009f600480360381019061009a9190610d98565b610556565b6040516100ac9190610e5a565b60405180910390f35b6100cf60048036038101906100ca9190610e75565b610631565b005b6100d96106df565b6040516100e99493929190611066565b60405180910390f35b606080606080606060008060008973ffffffffffffffffffffffffffffffffffffffff1673ffffffffffffffffffffffffffffffffffffffff1681526020019081526020016000209050600081600301905060005b81805490508110156104ee57888051906020012082828154811061016e5761016d6110c0565b5b906000526020600020906003020160010160405161018c91906111f2565b6040518091039020036104db578181815481106101ac576101ab6110c0565b5b90600052602060002090600302016000018282815481106101d0576101cf6110c0565b5b90600052602060002090600302016001018383815481106101f4576101f36110c0565b5b906000526020600020906003020160020185600001866002018480546102199061111e565b80601f01602080910402602001604051908101604052809291908181526020018280546102459061111e565b80156102925780601f1061026757610100808354040283529160200191610292565b820191906000526020600020905b81548152906001019060200180831161027557829003601f168201915b505050505094508380546102a59061111e565b80601f01602080910402602001604051908101604052809291908181526020018280546102d19061111e565b801561031e5780601f106102f35761010080835404028352916020019161031e565b820191906000526020600020905b81548152906001019060200180831161030157829003601f168201915b505050505093508280546103319061111e565b80601f016020809104026020016040519081016040528092919081815260200182805461035d9061111e565b80156103aa5780601f1061037f576101008083540402835291602001916103aa565b820191906000526020600020905b81548152906001019060200180831161038d57829003601f168201915b505050505092508180546103bd9061111e565b80601f01602080910402602001604051908101604052809291908181526020018280546103e99061111e565b80156104365780601f1061040b57610100808354040283529160200191610436565b820191906000526020600020905b81548152906001019060200180831161041957829003601f168201915b505050505091508080546104499061111e565b80601f01602080910402602001604051908101604052809291908181526020018280546104759061111e565b80156104c25780601f10610497576101008083540402835291602001916104c2565b820191906000526020600020905b8154815290600101906020018083116104a557829003601f168201915b505050505090509750975097509750975050505061054c565b80806104e690611242565b915050610147565b5060405180602001604052806000815250604051806020016040528060008152506040518060200160405280600081525060405180602001604052806000815250604051806020016040528060008152509650965096509650965050505b9295509295909350565b6000806000803373ffffffffffffffffffffffffffffffffffffffff1673ffffffffffffffffffffffffffffffffffffffff168152602001908152602001600020905080600301604051806060016040528087815260200186815260200185815250908060018154018082558091505060019003906000526020600020906003020160009091909190915060008201518160000190816105f69190611436565b50602082015181600101908161060c9190611436565b5060408201518160020190816106229190611436565b50505060019150509392505050565b60008060003373ffffffffffffffffffffffffffffffffffffffff1673ffffffffffffffffffffffffffffffffffffffff1681526020019081526020016000209050818160020190816106849190611436565b50828160000190816106969190611436565b50338160010160006101000a81548173ffffffffffffffffffffffffffffffffffffffff021916908373ffffffffffffffffffffffffffffffffffffffff160217905550505050565b6060600060608060008060003373ffffffffffffffffffffffffffffffffffffffff1673ffffffffffffffffffffffffffffffffffffffff1681526020019081526020016000209050806000018160010160009054906101000a900473ffffffffffffffffffffffffffffffffffffffff1682600201836003018380546107659061111e565b80601f01602080910402602001604051908101604052809291908181526020018280546107919061111e565b80156107de5780601f106107b3576101008083540402835291602001916107de565b820191906000526020600020905b8154815290600101906020018083116107c157829003601f168201915b505050505093508180546107f19061111e565b80601f016020809104026020016040519081016040528092919081815260200182805461081d9061111e565b801561086a5780601f1061083f5761010080835404028352916020019161086a565b820191906000526020600020905b81548152906001019060200180831161084d57829003601f168201915b5050505050915080805480602002602001604051908101604052809291908181526020016000905b82821015610a7a57838290600052602060002090600302016040518060600160405290816000820180546108c59061111e565b80601f01602080910402602001604051908101604052809291908181526020018280546108f19061111e565b801561093e5780601f106109135761010080835404028352916020019161093e565b820191906000526020600020905b81548152906001019060200180831161092157829003601f168201915b505050505081526020016001820180546109579061111e565b80601f01602080910402602001604051908101604052809291908181526020018280546109839061111e565b80156109d05780601f106109a5576101008083540402835291602001916109d0565b820191906000526020600020905b8154815290600101906020018083116109b357829003601f168201915b505050505081526020016002820180546109e99061111e565b80601f0160208091040260200160405190810160405280929190818152602001828054610a159061111e565b8015610a625780601f10610a3757610100808354040283529160200191610a62565b820191906000526020600020905b815481529060010190602001808311610a4557829003601f168201915b50505050508152505081526020019060010190610892565b50505050905094509450945094505090919293565b6000604051905090565b600080fd5b600080fd5b600073ffffffffffffffffffffffffffffffffffffffff82169050919050565b6000610ace82610aa3565b9050919050565b610ade81610ac3565b8114610ae957600080fd5b50565b600081359050610afb81610ad5565b92915050565b600080fd5b600080fd5b6000601f19601f8301169050919050565b7f4e487b7100000000000000000000000000000000000000000000000000000000600052604160045260246000fd5b610b5482610b0b565b810181811067ffffffffffffffff82111715610b7357610b72610b1c565b5b80604052505050565b6000610b86610a8f565b9050610b928282610b4b565b919050565b600067ffffffffffffffff821115610bb257610bb1610b1c565b5b610bbb82610b0b565b9050602081019050919050565b82818337600083830152505050565b6000610bea610be584610b97565b610b7c565b905082815260208101848484011115610c0657610c05610b06565b5b610c11848285610bc8565b509392505050565b600082601f830112610c2e57610c2d610b01565b5b8135610c3e848260208601610bd7565b91505092915050565b60008060408385031215610c5e57610c5d610a99565b5b6000610c6c85828601610aec565b925050602083013567ffffffffffffffff811115610c8d57610c8c610a9e565b5b610c9985828601610c19565b9150509250929050565b600081519050919050565b600082825260208201905092915050565b60005b83811015610cdd578082015181840152602081019050610cc2565b60008484015250505050565b6000610cf482610ca3565b610cfe8185610cae565b9350610d0e818560208601610cbf565b610d1781610b0b565b840191505092915050565b600060a0820190508181036000830152610d3c8188610ce9565b90508181036020830152610d508187610ce9565b90508181036040830152610d648186610ce9565b90508181036060830152610d788185610ce9565b90508181036080830152610d8c8184610ce9565b90509695505050505050565b600080600060608486031215610db157610db0610a99565b5b600084013567ffffffffffffffff811115610dcf57610dce610a9e565b5b610ddb86828701610c19565b935050602084013567ffffffffffffffff811115610dfc57610dfb610a9e565b5b610e0886828701610c19565b925050604084013567ffffffffffffffff811115610e2957610e28610a9e565b5b610e3586828701610c19565b9150509250925092565b60008115159050919050565b610e5481610e3f565b82525050565b6000602082019050610e6f6000830184610e4b565b92915050565b60008060408385031215610e8c57610e8b610a99565b5b600083013567ffffffffffffffff811115610eaa57610ea9610a9e565b5b610eb685828601610c19565b925050602083013567ffffffffffffffff811115610ed757610ed6610a9e565b5b610ee385828601610c19565b9150509250929050565b610ef681610ac3565b82525050565b600081519050919050565b600082825260208201905092915050565b6000819050602082019050919050565b600082825260208201905092915050565b6000610f4482610ca3565b610f4e8185610f28565b9350610f5e818560208601610cbf565b610f6781610b0b565b840191505092915050565b60006060830160008301518482036000860152610f8f8282610f39565b91505060208301518482036020860152610fa98282610f39565b91505060408301518482036040860152610fc38282610f39565b9150508091505092915050565b6000610fdc8383610f72565b905092915050565b6000602082019050919050565b6000610ffc82610efc565b6110068185610f07565b93508360208202850161101885610f18565b8060005b8581101561105457848403895281516110358582610fd0565b945061104083610fe4565b925060208a0199505060018101905061101c565b50829750879550505050505092915050565b600060808201905081810360008301526110808187610ce9565b905061108f6020830186610eed565b81810360408301526110a18185610ce9565b905081810360608301526110b58184610ff1565b905095945050505050565b7f4e487b7100000000000000000000000000000000000000000000000000000000600052603260045260246000fd5b7f4e487b7100000000000000000000000000000000000000000000000000000000600052602260045260246000fd5b6000600282049050600182168061113657607f821691505b602082108103611149576111486110ef565b5b50919050565b600081905092915050565b60008190508160005260206000209050919050565b6000815461117c8161111e565b611186818661114f565b945060018216600081146111a157600181146111b6576111e9565b60ff19831686528115158202860193506111e9565b6111bf8561115a565b60005b838110156111e1578154818901526001820191506020810190506111c2565b838801955050505b50505092915050565b60006111fe828461116f565b915081905092915050565b7f4e487b7100000000000000000000000000000000000000000000000000000000600052601160045260246000fd5b6000819050919050565b600061124d82611238565b91507fffffffffffffffffffffffffffffffffffffffffffffffffffffffffffffffff820361127f5761127e611209565b5b600182019050919050565b60008190508160005260206000209050919050565b60006020601f8301049050919050565b600082821b905092915050565b6000600883026112ec7fffffffffffffffffffffffffffffffffffffffffffffffffffffffffffffffff826112af565b6112f686836112af565b95508019841693508086168417925050509392505050565b6000819050919050565b600061133361132e61132984611238565b61130e565b611238565b9050919050565b6000819050919050565b61134d83611318565b6113616113598261133a565b8484546112bc565b825550505050565b600090565b611376611369565b611381818484611344565b505050565b5b818110156113a55761139a60008261136e565b600181019050611387565b5050565b601f8211156113ea576113bb8161128a565b6113c48461129f565b810160208510156113d3578190505b6113e76113df8561129f565b830182611386565b50505b505050565b600082821c905092915050565b600061140d600019846008026113ef565b1980831691505092915050565b600061142683836113fc565b9150826002028217905092915050565b61143f82610ca3565b67ffffffffffffffff81111561145857611457610b1c565b5b611462825461111e565b61146d8282856113a9565b600060209050601f8311600181146114a0576000841561148e578287015190505b611498858261141a565b865550611500565b601f1984166114ae8661128a565b60005b828110156114d6578489015182556001820191506020850194506020810190506114b1565b868310156114f357848901516114ef601f8916826113fc565b8355505b6001600288020188555050505b50505050505056fea26469706673582212203c9825d7d74d575a1d523b159749c4e08c6436a0510862d9ed22c83ceef8e92164736f6c63430008130033",
  "immutableReferences": {},
  "source": "// SPDX-License-Identifier: MIT\npragma solidity 0.8.19;\n\ncontract CreateCertificate {\n    struct Certificate {\n        string participentName;\n        string cid;\n        string wonPriceFor;\n    }\n    struct Event {\n        string eventName;\n        address eventOwner;\n        string date;\n        Certificate[] certificates;\n    }\n\n    mapping(address => Event) events;\n\n    function registerEvent(string memory eventName, string memory date) public {\n        Event storage event_ = events[msg.sender];\n        event_.date = date;\n        event_.eventName = eventName;\n        event_.eventOwner = msg.sender;\n    }\n\n    function getAllEvents()\n        public\n        view\n        returns (\n            string memory eventName,\n            address eventOwner,\n            string memory date,\n            Certificate[] memory certificates\n        )\n    {\n        Event storage event_ = events[msg.sender];\n        return (\n            event_.eventName,\n            event_.eventOwner,\n            event_.date,\n            event_.certificates\n        );\n    }\n\n    function generateCertificate(\n        string memory participentName,\n        string memory cid,\n        string memory wonPriceFor\n    ) public returns (bool) {\n        Event storage event_ = events[msg.sender];\n        event_.certificates.push(\n            Certificate(participentName, cid, wonPriceFor)\n        );\n        return true;\n    }\n\n    function verifyCertificate(\n        address eventAddress,\n        string memory cid\n    )\n        public\n        view\n        returns (\n            string memory participentName,\n            string memory cid_,\n            string memory wonPriceFor,\n            string memory eventName,\n            string memory eventDate\n        )\n    {\n        Event storage event_ = events[eventAddress];\n        Certificate[] storage certificates = event_.certificates;\n\n        for (uint i = 0; i < certificates.length; i++) {\n            if (\n                keccak256(bytes(certificates[i].cid)) == keccak256(bytes(cid))\n            ) {\n                return (\n                    certificates[i].participentName,\n                    certificates[i].cid,\n                    certificates[i].wonPriceFor,\n                    event_.eventName,\n                    event_.date\n                );\n            }\n        }\n\n        return (\"\", \"\", \"\", \"\", \"\");\n    }\n}\n",
  "sourcePath": "/Users/mohitgajjar501/Developer/EventLedger/contracts/CreateCertificate.sol",
  "compiler": {
    "name": "solc",
    "version": "0.8.19+commit.7dd6d404.Emscripten.clang"
  },
  "schemaVersion": "3.4.14",
  "updatedAt": "2023-08-26T14:41:54.500Z",
  "networkType": "ethereum",
  "devdoc": {
    "kind": "dev",
    "methods": {},
    "version": 1
  },
  "userdoc": {
    "kind": "user",
    "methods": {},
    "version": 1
  }
}